{
  "address": "0x71C95911E9a5D330f4D621842EC243EE1343292e",
  "abi": [
    {
      "inputs": [
        {
          "internalType": "address",
          "name": "priceFeedAddress",
          "type": "address"
        }
      ],
      "stateMutability": "nonpayable",
      "type": "constructor"
    },
    {
      "inputs": [],
      "name": "FundMe__NotOwner",
      "type": "error"
    },
    {
      "stateMutability": "payable",
      "type": "fallback"
    },
    {
      "inputs": [],
      "name": "MINIMUM_USD",
      "outputs": [
        {
          "internalType": "uint256",
          "name": "",
          "type": "uint256"
        }
      ],
      "stateMutability": "view",
      "type": "function"
    },
    {
      "inputs": [],
      "name": "cheaperWithdrawAll",
      "outputs": [],
      "stateMutability": "payable",
      "type": "function"
    },
    {
      "inputs": [],
      "name": "fund",
      "outputs": [],
      "stateMutability": "payable",
      "type": "function"
    },
    {
      "inputs": [],
      "name": "i_owner",
      "outputs": [
        {
          "internalType": "address",
          "name": "",
          "type": "address"
        }
      ],
      "stateMutability": "view",
      "type": "function"
    },
    {
      "inputs": [
        {
          "internalType": "address",
          "name": "",
          "type": "address"
        }
      ],
      "name": "s_addressToAmountFunded",
      "outputs": [
        {
          "internalType": "uint256",
          "name": "",
          "type": "uint256"
        }
      ],
      "stateMutability": "view",
      "type": "function"
    },
    {
      "inputs": [
        {
          "internalType": "uint256",
          "name": "",
          "type": "uint256"
        }
      ],
      "name": "s_funders",
      "outputs": [
        {
          "internalType": "address",
          "name": "",
          "type": "address"
        }
      ],
      "stateMutability": "view",
      "type": "function"
    },
    {
      "inputs": [],
      "name": "s_priceFeed",
      "outputs": [
        {
          "internalType": "contract AggregatorV3Interface",
          "name": "",
          "type": "address"
        }
      ],
      "stateMutability": "view",
      "type": "function"
    },
    {
      "inputs": [],
      "name": "withdrawAll",
      "outputs": [],
      "stateMutability": "payable",
      "type": "function"
    },
    {
      "stateMutability": "payable",
      "type": "receive"
    }
  ],
  "transactionHash": "0x7f4b7125c76b2aaa452b51ee0ab5b84c9055db3c8510a4f14b39eacb7b1ec57b",
  "args": [
    "0x8464135c8F25Da09e49BC8782676a84730C318bC"
  ],
  "numDeployments": 1,
  "solcInputHash": "52f891c8ba366ebb5db961fc2fb98f0f",
  "bytecode": "0x60a06040523480156200001157600080fd5b50604051620011d0380380620011d083398181016040528101906200003791906200011d565b3373ffffffffffffffffffffffffffffffffffffffff1660808173ffffffffffffffffffffffffffffffffffffffff168152505080600260006101000a81548173ffffffffffffffffffffffffffffffffffffffff021916908373ffffffffffffffffffffffffffffffffffffffff160217905550506200014f565b600080fd5b600073ffffffffffffffffffffffffffffffffffffffff82169050919050565b6000620000e582620000b8565b9050919050565b620000f781620000d8565b81146200010357600080fd5b50565b6000815190506200011781620000ec565b92915050565b600060208284031215620001365762000135620000b3565b5b6000620001468482850162000106565b91505092915050565b6080516110506200018060003960008181610372015281816105b5015281816107ab015261084301526110506000f3fe60806040526004361061007f5760003560e01c8063853828b61161004e578063853828b614610168578063b60d428814610172578063c7a07c0f1461017c578063dba6335f146101865761008e565b80630ec3b027146100985780631bf6132d146100c357806354861af7146101005780636b69a5921461013d5761008e565b3661008e5761008c6101b1565b005b6100966101b1565b005b3480156100a457600080fd5b506100ad6102ee565b6040516100ba9190610a58565b60405180910390f35b3480156100cf57600080fd5b506100ea60048036038101906100e59190610ab6565b610314565b6040516100f79190610afc565b60405180910390f35b34801561010c57600080fd5b5061012760048036038101906101229190610b43565b61032c565b6040516101349190610b7f565b60405180910390f35b34801561014957600080fd5b5061015261036b565b60405161015f9190610afc565b60405180910390f35b610170610370565b005b61017a6101b1565b005b6101846105b3565b005b34801561019257600080fd5b5061019b610841565b6040516101a89190610b7f565b60405180910390f35b670de0b6b3a764000060326101c69190610bc9565b6101f234600260009054906101000a900473ffffffffffffffffffffffffffffffffffffffff16610865565b1015610233576040517f08c379a000000000000000000000000000000000000000000000000000000000815260040161022a90610c8e565b60405180910390fd5b6000339080600181540180825580915050600190039060005260206000200160009091909190916101000a81548173ffffffffffffffffffffffffffffffffffffffff021916908373ffffffffffffffffffffffffffffffffffffffff16021790555034600160003373ffffffffffffffffffffffffffffffffffffffff1673ffffffffffffffffffffffffffffffffffffffff16815260200190815260200160002060008282546102e59190610cae565b92505081905550565b600260009054906101000a900473ffffffffffffffffffffffffffffffffffffffff1681565b60016020528060005260406000206000915090505481565b6000818154811061033c57600080fd5b906000526020600020016000915054906101000a900473ffffffffffffffffffffffffffffffffffffffff1681565b603281565b7f000000000000000000000000000000000000000000000000000000000000000073ffffffffffffffffffffffffffffffffffffffff163373ffffffffffffffffffffffffffffffffffffffff16146103f5576040517f579610db00000000000000000000000000000000000000000000000000000000815260040160405180910390fd5b60005b6000805490508110156104a057600080828154811061041a57610419610ce2565b5b9060005260206000200160009054906101000a900473ffffffffffffffffffffffffffffffffffffffff1690506000600160008373ffffffffffffffffffffffffffffffffffffffff1673ffffffffffffffffffffffffffffffffffffffff1681526020019081526020016000208190555050808061049890610d11565b9150506103f8565b50600067ffffffffffffffff8111156104bc576104bb610d59565b5b6040519080825280602002602001820160405280156104ea5781602001602082028036833780820191505090505b5060009080519060200190610500929190610932565b506000803373ffffffffffffffffffffffffffffffffffffffff164760405161052890610db9565b60006040518083038185875af1925050503d8060008114610565576040519150601f19603f3d011682016040523d82523d6000602084013e61056a565b606091505b5091509150816105af576040517f08c379a00000000000000000000000000000000000000000000000000000000081526004016105a690610e1a565b60405180910390fd5b5050565b7f000000000000000000000000000000000000000000000000000000000000000073ffffffffffffffffffffffffffffffffffffffff163373ffffffffffffffffffffffffffffffffffffffff1614610638576040517f579610db00000000000000000000000000000000000000000000000000000000815260040160405180910390fd5b6000808054806020026020016040519081016040528092919081815260200182805480156106bb57602002820191906000526020600020905b8160009054906101000a900473ffffffffffffffffffffffffffffffffffffffff1673ffffffffffffffffffffffffffffffffffffffff1681526020019060010190808311610671575b5050505050905060005b81518110156107465760008282815181106106e3576106e2610ce2565b5b602002602001015190506000600160008373ffffffffffffffffffffffffffffffffffffffff1673ffffffffffffffffffffffffffffffffffffffff1681526020019081526020016000208190555050808061073e90610d11565b9150506106c5565b50600067ffffffffffffffff81111561076257610761610d59565b5b6040519080825280602002602001820160405280156107905781602001602082028036833780820191505090505b50600090805190602001906107a6929190610932565b5060007f000000000000000000000000000000000000000000000000000000000000000073ffffffffffffffffffffffffffffffffffffffff16476040516107ed90610db9565b60006040518083038185875af1925050503d806000811461082a576040519150601f19603f3d011682016040523d82523d6000602084013e61082f565b606091505b505090508061083d57600080fd5b5050565b7f000000000000000000000000000000000000000000000000000000000000000081565b600080610871836108a1565b90506000670de0b6b3a7640000858361088a9190610bc9565b6108949190610e69565b9050809250505092915050565b6000808273ffffffffffffffffffffffffffffffffffffffff1663feaf968c6040518163ffffffff1660e01b815260040160a060405180830381865afa1580156108ef573d6000803e3d6000fd5b505050506040513d601f19601f820116820180604052508101906109139190610f27565b5050509150506402540be4008161092a9190610fa2565b915050919050565b8280548282559060005260206000209081019282156109ab579160200282015b828111156109aa5782518260006101000a81548173ffffffffffffffffffffffffffffffffffffffff021916908373ffffffffffffffffffffffffffffffffffffffff16021790555091602001919060010190610952565b5b5090506109b891906109bc565b5090565b5b808211156109d55760008160009055506001016109bd565b5090565b600073ffffffffffffffffffffffffffffffffffffffff82169050919050565b6000819050919050565b6000610a1e610a19610a14846109d9565b6109f9565b6109d9565b9050919050565b6000610a3082610a03565b9050919050565b6000610a4282610a25565b9050919050565b610a5281610a37565b82525050565b6000602082019050610a6d6000830184610a49565b92915050565b600080fd5b6000610a83826109d9565b9050919050565b610a9381610a78565b8114610a9e57600080fd5b50565b600081359050610ab081610a8a565b92915050565b600060208284031215610acc57610acb610a73565b5b6000610ada84828501610aa1565b91505092915050565b6000819050919050565b610af681610ae3565b82525050565b6000602082019050610b116000830184610aed565b92915050565b610b2081610ae3565b8114610b2b57600080fd5b50565b600081359050610b3d81610b17565b92915050565b600060208284031215610b5957610b58610a73565b5b6000610b6784828501610b2e565b91505092915050565b610b7981610a78565b82525050565b6000602082019050610b946000830184610b70565b92915050565b7f4e487b7100000000000000000000000000000000000000000000000000000000600052601160045260246000fd5b6000610bd482610ae3565b9150610bdf83610ae3565b9250828202610bed81610ae3565b91508282048414831517610c0457610c03610b9a565b5b5092915050565b600082825260208201905092915050565b7f4469646e27742073656e6420656e6f7567682066756e64732e204d696e696d7560008201527f6d2069732035302055534420696e204554480000000000000000000000000000602082015250565b6000610c78603283610c0b565b9150610c8382610c1c565b604082019050919050565b60006020820190508181036000830152610ca781610c6b565b9050919050565b6000610cb982610ae3565b9150610cc483610ae3565b9250828201905080821115610cdc57610cdb610b9a565b5b92915050565b7f4e487b7100000000000000000000000000000000000000000000000000000000600052603260045260246000fd5b6000610d1c82610ae3565b91507fffffffffffffffffffffffffffffffffffffffffffffffffffffffffffffffff8203610d4e57610d4d610b9a565b5b600182019050919050565b7f4e487b7100000000000000000000000000000000000000000000000000000000600052604160045260246000fd5b600081905092915050565b50565b6000610da3600083610d88565b9150610dae82610d93565b600082019050919050565b6000610dc482610d96565b9150819050919050565b7f43616c6c206661696c6564000000000000000000000000000000000000000000600082015250565b6000610e04600b83610c0b565b9150610e0f82610dce565b602082019050919050565b60006020820190508181036000830152610e3381610df7565b9050919050565b7f4e487b7100000000000000000000000000000000000000000000000000000000600052601260045260246000fd5b6000610e7482610ae3565b9150610e7f83610ae3565b925082610e8f57610e8e610e3a565b5b828204905092915050565b600069ffffffffffffffffffff82169050919050565b610eb981610e9a565b8114610ec457600080fd5b50565b600081519050610ed681610eb0565b92915050565b6000819050919050565b610eef81610edc565b8114610efa57600080fd5b50565b600081519050610f0c81610ee6565b92915050565b600081519050610f2181610b17565b92915050565b600080600080600060a08688031215610f4357610f42610a73565b5b6000610f5188828901610ec7565b9550506020610f6288828901610efd565b9450506040610f7388828901610f12565b9350506060610f8488828901610f12565b9250506080610f9588828901610ec7565b9150509295509295909350565b6000610fad82610edc565b9150610fb883610edc565b9250828202610fc681610edc565b91507f80000000000000000000000000000000000000000000000000000000000000008414600084121615610ffe57610ffd610b9a565b5b828205841483151761101357611012610b9a565b5b509291505056fea2646970667358221220a9b840fbe7a1c6d4c8b91446c33843f39bd7054a80f3c8ac77b5c4cb3e95e27464736f6c63430008110033",
  "devdoc": {
    "author": "Maximilian",
    "details": "This implements price feeds as our library",
    "kind": "dev",
    "methods": {
      "fund()": {
        "details": "This implements price feeds as our library"
      }
    },
    "title": "A contract for crowd funding",
    "version": 1
  },
  "userdoc": {
    "kind": "user",
    "methods": {
      "constructor": {
        "notice": "Functions order 1) constructor 2) receive 3) fallback 4) external 5) public 6) internal 7) private 8) view / pure"
      },
      "fund()": {
        "notice": "This function funds this contract"
      }
    },
    "notice": "This contract is to demo a sample funding contract",
    "version": 1
  },
  "storageLayout": {
    "storage": [
      {
        "astId": 58,
        "contract": "contracts/FundMe.sol:FundMe",
        "label": "s_funders",
        "offset": 0,
        "slot": "0",
        "type": "t_array(t_address)dyn_storage"
      },
      {
        "astId": 62,
        "contract": "contracts/FundMe.sol:FundMe",
        "label": "s_addressToAmountFunded",
        "offset": 0,
        "slot": "1",
        "type": "t_mapping(t_address,t_uint256)"
      },
      {
        "astId": 65,
        "contract": "contracts/FundMe.sol:FundMe",
        "label": "s_priceFeed",
        "offset": 0,
        "slot": "2",
        "type": "t_contract(AggregatorV3Interface)45"
      }
    ],
    "types": {
      "t_address": {
        "encoding": "inplace",
        "label": "address",
        "numberOfBytes": "20"
      },
      "t_array(t_address)dyn_storage": {
        "base": "t_address",
        "encoding": "dynamic_array",
        "label": "address[]",
        "numberOfBytes": "32"
      },
      "t_contract(AggregatorV3Interface)45": {
        "encoding": "inplace",
        "label": "contract AggregatorV3Interface",
        "numberOfBytes": "20"
      },
      "t_mapping(t_address,t_uint256)": {
        "encoding": "mapping",
        "key": "t_address",
        "label": "mapping(address => uint256)",
        "numberOfBytes": "32",
        "value": "t_uint256"
      },
      "t_uint256": {
        "encoding": "inplace",
        "label": "uint256",
        "numberOfBytes": "32"
      }
    }
  }
}